:020000040800F2
:10000000188301205D0200088B1F0008E31500081B
:10001000891F0008A50C00086937000800000000CF
:100020000000000000000000000000009D0100082A
:10003000C90D000800000000F9010008B1310008F6
:10004000BD3700087702000877020008A12E0008DB
:100050007702000877020008D9100008770200082C
:100060002111000869110008A91100087702000891
:10007000770200087702000877020008770200087C
:10008000770200087702000877020008770200086C
:10009000770200087702000877020008770200085C
:1000A000770200083932000877020008770200085A
:1000B0006D3200089D3200087702000877020008C0
:1000C000770200087702000877020008770200082C
:1000D000770200084D3300088D340008CD34000845
:1000E000770200084D2A000877020008770200080E
:1000F000F93200087702000877020008770200084A
:1001000077020008770200087702000877020008EB
:10011000770200087702000877020008D132000851
:1001200077020008770200087702000877020008CB
:1001300077020008770200087702000877020008BB
:1001400077020008770200087702000877020008AB
:10015000770200087702000877020008770200089B
:10016000770200087702000877020008770200088B
:10017000770200087702000877020008770200087B
:100180007702000877020008DFF80CD000F0E0FBEF
:1001900000480047F5540008188301202C4B1968CB
:1001A0000868B0E8F04F80F30988BFF36F8F4FF015
:1001B000000080F3118870470000000008480068C4
:1001C000006880F308884FF0000080F3148862B65E
:1001D00061B6BFF34F8FBFF36F8F00DF00BF00BF6B
:1001E00008ED00E0DFF80C00016841F470010160E7
:1001F000704700BF88ED00E0EFF30980BFF36F8F19
:10020000134B1A681EF0100F08BF20ED108A20E96A
:10021000F04F106009B44FF0500080F31188BFF325
:100220004F8FBFF36F8F07F087FC4FF0000080F314
:10023000118809BC19680868B0E8F04F1EF0100F6B
:1002400008BFB0EC108A80F30988BFF36F8F704746
:10025000EC0E0020EFF30580704700000648804751
:1002600006480047FEE7FEE7FEE7FEE7FEE7FEE79B
:10027000FEE7FEE7FEE7FEE7DD3100088901000842
:10028000A0F14101192900D82030704740EA01034C
:100290009B0703D009E008C9121F08C0042AFAD23C
:1002A00003E011F8013B00F8013B521EF9D2704700
:1002B000D2B201E000F8012B491EFBD270470022A8
:1002C000F6E710B513460A4604461946FFF7F0FF55
:1002D000204610BD421E12F8013F002BFBD111F841
:1002E000013B02F8013B002BF9D1704730B50546C0
:1002F0002A460B4612F8010B13F8014B08B1A04235
:10030000F8D01CB1002802D06D1CF1E7284630BDA2
:10031000CAB2401E10F8011F8A4202D00029F9D14A
:1003200000207047421C10F8011B0029FBD1801AE5
:10033000704710B5002200E0521C835C8C5CA34225
:1003400001D1002BF8D1D8B2E1B2401A10BD10B5DE
:10035000044600E0401C0378002BFBD100E0401C69
:10036000521E04D311F8013B0370002BF7D100217A
:100370000170204610BD034611F8012B00F8012B37
:10038000002AF9D11846704730B5054600200346CB
:1003900000E05B1C934205D2EC5CC85C201A01D1E2
:1003A000002CF6D130BD2DE9FE4F804681EA0300D6
:1003B000C00F0C46009021F0004123F00045B8EB3F
:1003C0000200A94105D24046214690461C460B46F4
:1003D000024623F00040104347D0270DC7F30A0020
:1003E000C3F30A510290401A019040286BDAC3F31C
:1003F000130040F4801B0098924620B10023D2EBFA
:10040000030A63EB0B0B01985946C0F140025046BA
:1004100000F071F906460D4650465946019A00F023
:1004200089F910EB08006141002487EA115284EA3F
:10043000E7731A4340D0009A62B3019A012A4FEA47
:10044000075215DC001B61EB02014FF0004202EA8B
:100450000752CDE90042001C41F5801132462B467F
:1004600000F089F903B0BDE8F08F40462146F9E776
:10047000001B61EB0201001C41F5801300185B4179
:100480002018A2F5001747EB030140EAD570B61912
:100490006D4111E06D084FEA360645EAC0754FEA36
:1004A0000752001B61EB0201001C41F58011490855
:1004B0004FEA30000019514132462B4603B0BDE8E7
:1004C000F04F00F049B90098012240000023D0EB22
:1004D000020263EBE073009821464FEAE074B8EB48
:1004E000000061EB0401E9E783F000435BE781F082
:1004F000004158E72DE9FE4F81EA030404F000446F
:1005000021F0004100944FF0000B23F0004350EA2B
:1005100001045ED052EA03045BD0C3F30A54C1F372
:100520000A552C44A4F2F3340194A0FB0254C1F305
:10053000130141F48011C3F3130343F4801301FB4F
:10054000024400FB034E840A970A44EA815447EAB6
:100550008357A4FB076802958D0A05FB07854FEAC0
:10056000932C04FB0C542705029D4FEA065847EADA
:100570001637B5EB08056EEB070C870E920E47EAAF
:10058000811742EA8312A7FB0201B6EB0B0164EB71
:1005900000042B0D43EA0C335E1844EB1C50DA4682
:1005A0005146E7FB0201C5F313044FEA0B3343EA5C
:1005B00014534FEA0432019C43EA0603A4F10C04ED
:1005C0000294009CCDE900B400F0D5F803B0BDE87A
:1005D000F08F00200146F9E70EB5C10F80EAE07008
:1005E0000844CA07002140F233438DE80E000A4652
:1005F0000B4600F0C0F803B000BD70B5C1F30A525D
:1006000001F000450024C1F3130140F2FF3341F42F
:1006100080119A4201DA002070BD40F233439A42C1
:10062000A2F2334203DC524200F074F800E0904042
:100630002C43F1D0404270BD30B5041E71F100046E
:1006400004DB4FF00044404264EB0101141E73F1DF
:10065000000405DB1C464FF00043524263EB0403E9
:10066000994208BF904230BD30B50B46014600208C
:100670002022012409E021FA02F59D4205D303FA64
:1006800002F5491B04FA02F52844151EA2F10102E5
:10069000F1DC30BD2DE9F05F0546002092469B4617
:1006A00088460646814640241BE028464146474688
:1006B000224600F02FF853465A46C01A914110D3F3
:1006C00011461846224600F016F82D1A67EB01086D
:1006D0004F4622460120002100F00DF817EB0009DB
:1006E0004E41201EA4F10104DFDC484631462A4673
:1006F0004346BDE8F09F202A04DB203A00FA02F1CD
:10070000002070479140C2F1200320FA03F31943FF
:1007100090407047202A04DB203A21FA02F00021A1
:10072000704721FA02F3D040C2F120029140084301
:1007300019467047202A06DBCB17203A41FA02F00F
:1007400043EAE07306E041FA02F3D040C2F120022E
:10075000914008431946704710B5141E73F1000408
:1007600008DA401C41F1000192185B411A4301D1A3
:1007700020F0010010BD2DE9F04D92469B4611B1CD
:10078000B1FA81F202E0B0FA80F220329046FFF72F
:10079000B2FF04460F4640EA0A0041EA0B01534605
:1007A0005A46084313D0114653EA010019D0C8F144
:1007B00040025046FFF7AEFF05460E4650465946EA
:1007C0004246FFF798FF084305D0012004E0204689
:1007D0003946BDE8F08D0020054346EAE0762C431B
:1007E00037430A986305E40AA0EB08000022FD0ADB
:1007F00044EA47540A3002D500200146E9E70105E2
:1008000010196941DDE9084500196941BDE8F04D5D
:10081000A2E72DE9F04D81EA030404F0004B21F03A
:10082000004514464FF0000A23F0004150EA05024B
:1008300020D054EA01021DD0C5F30A570246C5F381
:100840001303C1F31300C1F30A5640F4801543F4B7
:100850008013A7EB0608101BD64608F2FD3873EB91
:10086000050002D308F1010801E092185B41B8F1DC
:10087000000F03DA00200146BDE8F08D00204FF4A0
:100880008011064684460EE0171B73EB050705D35F
:10089000121B63EB050306434CEA010C49084FEABF
:1008A000300092185B4150EA0107EDD152EA030093
:1008B00012D082EA040083EA0501084305D0101B28
:1008C000AB4106D20122002306E000224FF0004394
:1008D00002E06FF0010253101AEB06004CEB0851D6
:1008E00010EB0A0041EB0B01BDE8F04DFFF734BF00
:1008F00070B521F0004303430CD0C1F30A55002426
:10090000D5EB040564EB0403D617AD1AB34102DB43
:100910000020014670BD201841EB025170BDC1F3AB
:100920000A52C1F3130140F2FF3341F480119A429D
:1009300002DA00200146704740F233439A42A2F2A5
:10094000334202DC5242FFF7E5BEFFF7D4BE00009F
:10095000064C074D06E0E06840F0010394E807000C
:1009600098471034AC42F6D3FFF712FC6C930008A2
:100970008C9300082DE9F04D00231A461B1A8A417A
:1009800003DB00200146BDE8F08DC1F30A52C1F33C
:10099000130141F480154FF0000BD10702D100186C
:1009A0006D41521E0027044640F2FF11384601EB0C
:1009B000620A3E468046024600204FF48011FFF74F
:1009C000A9FEC2197141BB1846EB0100B4EB030C40
:1009D00075EB000C04D3E41A65EB000517460E46D0
:1009E000241908F101006D4180463428E3DDF9192E
:1009F00046EB0600091BA84103D24FF0FF32134615
:100A000001E0002213461BEB070046EB0A51BDE84C
:100A1000F04DFFF7A1BE70B58C1810F8015B15F012
:100A2000070301D110F8013B2A1106D110F8012B60
:100A300003E010F8016B01F8016B5B1EF9D12B0785
:100A400005D40023521E0DD401F8013BFAE710F83B
:100A5000013BCB1A921C03E013F8015B01F8015B28
:100A6000521EF9D5A142D8D3002070BDC943016000
:100A700070470029816802D041F0010101E021F0B6
:100A80000101816070470000084B10B5D3F80423C2
:100A900007490A40D0E900142143D0E90240044349
:100AA00021431143C3F8041310BD0000002001408E
:100AB000E030FCFFC06C80B2704702460020126834
:100AC0000A4200D00120704730B542680F4B0C79C4
:100AD0001A400B6842EA04221343436082680C4BBD
:100AE0004D791A40D1E9034323438C6844EA450415
:100AF000234313438360C26A097D22F47002491EB6
:100B0000C9B242EA0151C16230BD0000FFFEFFFCE4
:100B1000FDF7FFC070B5072609290AD9C568A1F1FC
:100B20000A0404EB4404A640B543A3401D43C5603A
:100B300007E0056901EB4104A640B543A3401D430E
:100B400005611F23072A09D2446B521E02EB820261
:100B500093409C4391400C43446370BD0D2A09D2DD
:100B6000046BD21F02EB820293409C4391400C43E2
:100B7000046370BDC46A0D3A02EB820293409C4349
:100B800091400C43C46270BD816841F08041816036
:100B90007047000070B50546FFF7F6FF02212846B2
:100BA000FFF78BFF0028F9D002210448FFF75EFF12
:100BB0002846BDE87040FFF77DBF000000220140DD
:100BC00010B58CB00121202001F08EFE0121880299
:100BD00001F0A2FE80200A9003208DF82C00002452
:100BE0008DF82F400AA9164800F0AAFC0694079435
:100BF000089406A80994FFF747FF00948DF8044075
:100C00000120029404940F4C8DF805008DF8140017
:100C100069462046FFF758FF072301220521204699
:100C2000FFF778FF02212046FFF720FF0121204631
:100C3000FFF71FFF2046FFF7A7FF0CB010BD000015
:100C400000140240002201401CB50121202001F0C7
:100C50004BFE4FF48070009001208DF804000024BA
:100C60008DF8064003208DF805008DF80740694691
:100C7000044800F065FC0448C0F8A04203A002F05C
:100C800023FE1CBD001402400080424242454550F4
:100C90005F494E49545F53756363657373200D0A52
:100CA00000000000FEE7000070B5002404F078FAB0
:100CB000104D04E0641CE4B2012004F049FAD5F8B8
:100CC000240210B1642CF5D30DE0642C0BD2002467
:100CD00004E0641CE4B2012004F03AFAD5F82402DE
:100CE00018B1642C04D3012070BD642CF1D3FAE751
:100CF000002070BD000043421CB50121402001F0DE
:100D0000F3FD4FF40070009001208DF804008DF881
:100D1000060003208DF8050000208DF807006946C5
:100D2000034800F00DFC00F039F8FFF7BDFF1CBDD3
:100D30000018024070B50024104D04E0641CE4B2B9
:100D4000012004F005FAD5F8240208B1642CF5D38B
:100D5000002404E0641CE4B2012004F0F9F9D5F8A1
:100D6000240208B9642CF5D3282004F0F1F9D5F851
:100D70002402002800D0012070BD00000000434282
:100D800070B5002004464006050EFFF7D3FF641C33
:100D90002843E4B2082CF6D370BD000010B504F06F
:100DA00015FA084C0020C4F8A402142004F5297494
:100DB00004F0CBF901202060BDE810401E2004F0B3
:100DC000C7B90000000043427047F8B50D4606461B
:100DD00005F01CFE0A220621002001F02FFA0B224A
:100DE00006210F2001F02AFA10233A2206211C20A6
:100DF00001F04CFA102402233246062123200094ED
:100E000001F088FA102343220621372001F03EFA30
:100E10000C220621442001F011FA0B220621532056
:100E200001F00CFA10233A220621602001F02EFA7C
:100E300002232A4606216820009401F06BFA01B0D3
:100E40001023BDE8F04046220621792001F01EBAA9
:100E500010B54FF480710348FFF731FA02490020C2
:100E6000088010BDC8100020D80E002010B5044620
:100E700000F022F958B90AA10B48FFF737FA30B150
:100E80003A21FFF745FA002800D0401C10BD05208C
:100E900004F05BF92046641EA4B2E9D210BD000044
:100EA0004950442C00000000C810002010B5FFF786
:100EB000CFFF24A002F008FD4FF4FA7402E02046B0
:100EC00004F043F921A122A000F0AEF80028F6D1E9
:100ED00021A002F0F9FC02E0204604F036F91BA143
:100EE00020A000F0A1F80028F6D122A002F0ECFC2E
:100EF00002E0204604F029F914A122A000F094F8A1
:100F00000028F6D123A002F0DFFC02E0204604F026
:100F10001CF923A124A000F087F80028F6D12AA00C
:100F200002F0D2FC02E0204604F00FF92AA12CA026
:100F300000F07AF80028F6D1BDE8104034A002F0A5
:100F4000C3BC0000312E2041540D0A004F4B00005D
:100F500041540D0A00000000322E2043574D4F44EB
:100F6000450D0A0041542B43574D4F44453D310D2B
:100F70000A000000332E2041542B4357444843506D
:100F80000D0A000041542B4357444843503D312C37
:100F9000310D0A00342E2043574A41500D0A0000FB
:100FA000474F54204950000041542B43574A415069
:100FB0003D225951303031222C22363636363636E3
:100FC00036363030220D0A00352E20434950535416
:100FD0004152540D0A000000434F4E4E4543540009
:100FE00041542B43495053544152543D2254435091
:100FF000222C226D717474732E6865636C6F756436
:10100000732E636F6D222C313838330D0A000000C7
:10101000362E204553503832363620496E697420BA
:101020004F4B0D0A0000000070B50D460646C8245F
:10103000FFF778F982B231460B4802F096FB0EE0DA
:1010400000F03AF840B929460848FFF74FF918B1BF
:10105000FFF7FEFE002070BD0A2004F076F8641E43
:10106000E4B2EDD2012070BD00480040C81000205D
:1010700030B589B00C460546FFF7EAFE224608A1C6
:10108000684602F045FC0AA16846FFF7CDFF00283C
:1010900004D122462946074802F067FB09B030BD5B
:1010A00041542B43495053454E443D25640D0A009D
:1010B0003E000000004800400649088828B14A88E0
:1010C000904204D10020088070470120704748807A
:1010D000FBE70000D80E002010B5012000F0CEF88C
:1010E000002815D0322004F030F80A48D0F8000269
:1010F00048B90949012008700848D0F8A41281F0C5
:101100000101C0F8A412BDE81040012000F06CB845
:1011100010BD000000004042380100200080424223
:1011200010B5042000F0AAF8002815D0322004F0F1
:101130000CF80A48D0F8080248B90949022008709A
:101140000848D0F8A81281F00101C0F8A812BDE843
:101150001040042000F048B810BD000000004242DA
:10116000380100200080424210B5082000F086F8C7
:10117000002814D0322003F0E8FF0948D0F80C1200
:1011800041B9084A03211170D0F8B41281F001016D
:10119000C0F8B412BDE81040082000F025B810BD1A
:1011A000000042423801002010B5102000F066F81F
:1011B000002814D0322003F0C8FF0948D0F81012DC
:1011C00041B9084A04211170D0F8B81281F0010128
:1011D000C0F8B812BDE81040102000F005B810BDEE
:1011E00000004242380100200149086070470000B9
:1011F000143C01403EB50121880301F08DFB002124
:10120000084601F063FF0221042001F05FFF032183
:10121000042001F05BFF0421084601F057FF1D2068
:10122000019000208DF808000C208DF809000124A1
:101230008DF80A4001A800F02BF806208DF8000078
:101240000F208DF801008DF802008DF803406846EC
:1012500000F09CFE08208DF80000684600F096FE25
:1012600009208DF80000684600F090FE0A208DF8F5
:101270000000684600F08AFE3EBD0000034A0146B9
:10128000002012680A4200D001207047143C01403F
:1012900030B51A4A8379016853B313688B431360DE
:1012A000111D0B680468A3430B60017911440B689E
:1012B000046823430B60114B083319680468A14389
:1012C00019601C1D21680568A94321604179102916
:1012D00005D011440A68006802430A6030BD1968ED
:1012E000026811431960216800680143216030BD24
:1012F0000079104402688A43026030BD003C01401E
:1013000001490860704700000C3C024070B5064679
:10131000002529B1012927D0022928D04FF4407592
:1013200000F0CAF809281ED1124C206820F4407041
:101330002060206828432060206820F0F8002060AA
:10134000206846F0020108432060206840F48030A5
:10135000206000F0B1F8216821F0020121602168CD
:1013600021F0F801216070BD4FF48075D8E74FF48B
:101370000075D5E7103C02400D4909200A68D203E8
:1013800001D5012070470A68D20601D506207047B2
:101390000A68D20501D5022070470A6812F0EF0FE3
:1013A00001D00720704709688907FBD508207047DE
:1013B0000C3C024010B5044600F06CF8F320FFF737
:1013C0009FFF084951F824000221FFF79FFF0928D9
:1013D00003D005A002F078FAFEE7BDE8104000F067
:1013E0000BB800005C010020E693A6E999A4E5A4EF
:1013F000B1E8B4A50D0A00000248016841F00041BF
:1014000001607047103C024070B50D46064600F082
:1014100053F8092813D10A4C206820F4407020604A
:10142000206840F400702060206840F001002060D7
:10143000356000F041F8216821F00101216070BDA4
:10144000103C0240F0B40E4C54F82000014400203F
:101450000EE00C784D7844EA05248D78CE782D0482
:1014600045EA06652C43641C06D00C5C1454401CF1
:101470009842EEDBF0BC7047F0BC02A002F024BA48
:101480007C010020E697A0E69588E695B0E68DAE53
:101490000D0A000005480068002805DA03480449E1
:1014A0000C3801600349016070470000103C0240A5
:1014B00023016745AB89EFCD08B509208DF8000001
:1014C000FFF75AFF8DF800009DF800000128F7D0C3
:1014D0009DF8000008BD00002DE9F0411446134AB4
:1014E0001F4652F8202056183168491C01D0FFF7DA
:1014F00061FFFFF7CFFF002510E0E078216860F37F
:101500001F613046FFF780FF092804D0BDE8F04195
:1015100007A002F0D9B9241D6D1C361DB5EB970F3D
:10152000EBDBBDE8F041FFF767BF00007C01002066
:10153000E7BC96E7A88BE5A4B1E8B4A50D0A0000C6
:10154000F0B5002201274FF0030C0B6807FA02F5F3
:101550002B40AB422CD1066853000CFA03F4A6438F
:1015600006600E79D0F800E09E4046EA0E0606605E
:101570000E79012E01D0022E12D18668A643866014
:101580004E79D0F808E09E4046EA0E06866046682E
:10159000AE43466045688E799640B6B235434560A5
:1015A000C568A543C560CC799C40C3681C43C46032
:1015B000521C102AC9D3F0BD4B07DB0E9A40C90854
:1015C00010B500EB8100016A0F249C40A143016229
:1015D000016A1143016210BD0AB101837047418362
:1015E0007047FEE710B5012001F05AFD09490120BE
:1015F000C1F8BC02084CC4F8A802052004F52A74FE
:1016000003F0A6FD00202060BDE81040052003F097
:101610009FBD0000008040420080414270B5012023
:1016200001F03EFD09480124C0F8BC42084D0020ED
:10163000C5F8A802052005F52A7503F089FD2C6080
:10164000BDE87040052003F083BD000000804042EB
:101650000080414210B5002001F022FD054C012020
:10166000C4F8BC02052004F52F7403F071FD0020BE
:10167000206010BD0080404202494AF6AA2008605E
:1016800070470000003000401CB50121112001F01E
:101690002BF90120009000208DF804008DF8070040
:1016A00069460648FFF74CFF1C2000906946044835
:1016B000FFF746FF03A002F007F91CBD000002403F
:1016C000001002404B45595F494E49545F537563C2
:1016D00063657373200D0A007CB50121202001F0A1
:1016E00003F901248DF8044000254FF4C0608DF803
:1016F0000650032600908DF805608DF80750694666
:101700001148FFF71DFF0121102001F0EDF88DF8C1
:10171000044070038DF8065000908DF805608DF838
:10172000075069460948FFF70BFF0948C0F8A44273
:10173000C0F8A8420748C0F8B442C0F8B84206A0B2
:1017400002F0C2F87CBD000000140240001002400C
:1017500000804242000042424C45445F494E495499
:101760005F53756363657373200D0A0010B50446FB
:1017700080F001024FF400710248FFF72DFF02488C
:10178000047010BD001402403401002010B504465E
:1017900080F001024FF480610248FFF71DFF02480C
:1017A000447010BD001402403401002010B50446FE
:1017B00080F001024FF400510248FFF70DFF02488C
:1017C000847010BD001002403401002010B50446A2
:1017D00080F001024FF480410248FFF7FDFE02480D
:1017E000C47010BD001002403401002010B5044642
:1017F000007B012802D1206803F014FD0020206046
:101800006060A060207310BD0246012002F07F03DB
:101810000B70D20908D043F08003401C01F8013B53
:101820000428F3DD4FF0FF3070472DE9F041044606
:10183000002500680F462E4610B10220207315E0E7
:1018400001202073084603F031FF2060002808D0F3
:10185000C4E9016702E0206846556D1CA068A842F3
:10186000F9D8BDE8F081206846556D1CA068A842F3
:10187000F9D866608842F4D22660F2E72DE9FF5F6E
:101880009A46934600251046DDF844900E9F139C1F
:10189000FEF748FD06B20098FEF744FD0198FEF7FA
:1018A00041FDBBF1000F1FD006F111001FFA80F8B7
:1018B00007B10225109868B145F00405FEF732FD26
:1018C000C7B24846FEF72EFDC11901EB0800001D06
:1018D0001FFA80F80F9870B1012807D0022808D0AD
:1018E000022004B0BDE8F09F0120FAE745F00C05A6
:1018F00001E045F01405129808B145F02405009860
:1019000060B3019850B345F0C0050098FEF70AFD9A
:1019100007460198FEF706FD391801EB0800001D87
:1019200087B239462046FFF780FF2068C0B13946AC
:10193000FEF7C5FCD4E90030411C102261601A5446
:10194000D4E900010144781FFFF75EFF00B20028D0
:1019500008DA2046FFF74AFF0520C2E70320C0E768
:101960000420BEE7616823680844411C61600022CE
:101970001A54D4E90030421C042162601954D4E99D
:101980000070421C4D2362603B54D4E90070421C3D
:10199000626051233B54D4E90030471C54226760F5
:1019A0001A54D4E90070431C63603A54D4E90030FF
:1019B000421C62601954D4E90020411C6160155436
:1019C000D4E90030411C4FEA1A2261601A54D4E96C
:1019D0000030421C626003F800A0D4E90030411CD2
:1019E000320A61601A54D4E90020411C6160165427
:1019F000D4E90001084432465946FEF7A8FC606865
:101A000030446060680736D5B9F1000F01D10FF29C
:101A1000D8091098FEF786FC86B2D4E90030411C44
:101A2000320A61601A54D4E90020411C61601654E6
:101A3000D4E90001084432461099FEF788FC60683A
:101A4000304460604846FEF76DFC86B2D4E9003051
:101A5000411C320A61601A54D4E90020411C6160C3
:101A60001654D4E90001084432464946FEF76FFC9B
:101A7000606830446060280618D50098FEF752FC74
:101A800086B2D4E90030411C320A61601A54D4E9AC
:101A90000020411C61601654D4E90001084432461C
:101AA0000099FEF754FC606830446060680618D501
:101AB0000198FEF737FC85B2D4E90030411C2A0AB0
:101AC00061601A54D4E90020411C61601554D4E9C6
:101AD000000108442A460199FEF739FC6068284451
:101AE00060600020FDE60000000000002DE9FF5FBF
:101AF0008B46DDE90EA14FF00005119C99465FEA87
:101B000000082A4608D1012004B0BDE8F09F232830
:101B100017D02B2815D06D1C1BF805000028F6D116
:101B200042F0300609B146F0010605EB0907BF1C7B
:101B30005FEA0A000DD0012805D0022806D0032054
:101B4000E2E70220E0E746F0020601E046F0040684
:101B5000BF1CF91C2046FFF768FE2068A0B1F91CE5
:101B6000FEF7ADFBD4E90020411C61601654D4E9B6
:101B7000000101443846FFF747FE002806DA2046F8
:101B8000FFF734FE0520BFE70420BDE76168236846
:101B90000844411C2A0A61601A54D4E90020411CFF
:101BA00061601554D4E9000108442A465946FEF7FD
:101BB000CEFB6068BAF1000F284460600BD0236848
:101BC000411C4FEA182261601A54D4E90030421CCB
:101BD000626003F80080029850B1D4E90001084423
:101BE0004A460299FEF7B3FB616801EB09006060A9
:101BF000002089E71FB500200DF1040C0122069C8E
:101C000000908CE815000B46024604A10A20FFF75D
:101C10006DFF002800D0012004B010BD247379733B
:101C20002F307646323035636F5A362F456E7669DF
:101C3000726F6E6D656E74616C5F4D6F6E69746FFF
:101C400072696E672F7468696E672F70726F706546
:101C50007274792F706F7374000000002DE9F047E3
:101C60004FF00007089C984616468A465FEA00092E
:101C70003D460AD10120BDE8F08756F8250018B38B
:101C8000FEF750FB6D1C0744EDB24545F5D308EB5C
:101C90004800C519E91D2046AD1CFFF7C6FD2168A7
:101CA000A1B160688223421C62600B54D4E9000138
:101CB00001442846FFF7A8FD00B2002808DA2046B4
:101CC000FFF794FD0420D6E70220D4E70320D2E7F3
:101CD000616823680844411C4FEA192261601A5464
:101CE000D4E90030421C626003F80090002520E037
:101CF00056F82500FEF716FB0746020AD4E9003025
:101D0000411C61601A54D4E90020411C61601754E1
:101D1000D4E90001084456F825103A46FEF717FBAF
:101D2000606823683844421C62606D1C03F800A0A0
:101D3000EDB24545DCD300209DE7F0B50446002018
:101D400001235D05106012E0275C166807F07F072D
:101D500007FB03661660265C360601D4401CF0BD06
:101D6000DB01AB4202D36FF00100F0BD401C8842A2
:101D7000EADB4FF0FF30F0BD4178022901D00120AD
:101D80007047817819B1012901D0FF207047C078D0
:101D9000704700002DE9F84F05460078DDE90A7B21
:101DA00000F00F0900200E460090C9F341011446CF
:101DB0008BF80010984609F0080A6A460421681C4E
:101DC000FFF7BBFF054400996D1C022942D35FEA6F
:101DD000C9703FD1288840BA2080801C88427AD8B8
:101DE0003EA1A81CFEF782FA10B10F20BDE8F88FC3
:101DF0009BF8000020B101282DD002286BD12AE0E9
:101E0000BAF1000F67D12088401C03F04FFC30600E
:101E1000002860D02188491CFEF751FA2288A91CAD
:101E20003068FEF733FA20880099081A801E80B2C5
:101E30003880401C03F03AFCC8F8000038B13988FB
:101E4000491CFEF73CFA3A882088AD1C33E0306824
:101E500003F0E8F93FE02088009A811C91423AD8CB
:101E6000A91C08440C99008840BA08800C9890B3CB
:101E70002088401C03F01AFC306060B32188491CA4
:101E8000FEF71DFA2288A91C3068FEF7FFF92088AA
:101E90000099081A001F80B23880401C03F006FC2D
:101EA000C8F800000028D2D03988491CFEF707FA8C
:101EB0003A8820882D1D4119D8F80000FEF7E6F970
:101EC0002B213046FEF724FA28B923213046FEF7AD
:101ED0001FFA00288AD0FF2088E70000246372657B
:101EE000710000004178022904D1817811B9C078CD
:101EF0000A2801D0012070470020704738B50446F9
:101F00000078FF210009421E0E2A01D3084638BD81
:101F10000328FCD1002000906A460421601CFFF7D2
:101F20000CFF20440099401C022907D32278D207D5
:101F300004D1028852BA921C8A4201D9FF2038BDCE
:101F400004A1801CFEF7D2F908B10F2038BD032090
:101F500038BD000024637265710000000146FF2057
:101F60008A78002A0BD1CA78142A08D1087938B1A6
:101F7000012805D0022803D0802803D00220704712
:101F80000020704701207047FEE7704730B50F23EF
:101F9000C27801780125FAB1144A126801F1E021F2
:101FA00002F4E062C2F5E062C2F30722C2F1040467
:101FB000D3404278A24084781C401443220181F827
:101FC0000024007800F01F018D404009800000F1DE
:101FD000E020C0F8005130BD01F01F0085404809E5
:101FE000800000F1E020C0F8805130BD0CED00E031
:101FF0000249084302490860704700000000FA05E2
:102000000CED00E070B50025002105F1B00000F0F6
:10201000B6F90021084600F0B2F90021102000F0C6
:10202000AEF900240121002000F0A9F9641CE4B2FB
:10203000802CF7D36D1CEDB2082DE5D370BD2DE9D2
:10204000F0471F4690460E4682460025DDF8209058
:1020500011E03146504600F0DBF8544607E019F82D
:10206000050001216D1C00F08AF9641CE4B24445AE
:10207000F5D3761CF6B2BE42EBD3BDE8F087000084
:102080001CB501210A2000F02FFC4FF40040012470
:1020900000908DF804408DF8064003208DF805006F
:1020A00000208DF8070069463F48FFF749FAA00273
:1020B000009069463D48FFF743FA3D48C0F8BC42EE
:1020C0003C48C0F8A8420021AE2000F058F9002199
:1020D000084600F054F90021102000F050F90021CA
:1020E000402000F04CF90021B02000F048F9002118
:1020F000812000F044F90021FF2000F040F9002188
:10210000A12000F03CF90021A62000F038F90021C0
:10211000A82000F034F900213F2000F030F9002120
:10212000C82000F02CF90021D32000F028F900216C
:10213000084600F024F90021D52000F020F9002104
:10214000802000F01CF90021D82000F018F90021AF
:10215000052000F014F90021D92000F010F9002129
:10216000F12000F00CF90021DA2000F008F900213C
:10217000122000F004F90021DB2000F000F900211A
:10218000302000F0FCF800218D2000F0F8F800214C
:10219000142000F0F4F80021AF2000F0F0F806A0C1
:1021A00001F092FB1CBD000000040240000C024044
:1021B00000804042008041424F4C45445F494E49B7
:1021C000545F537563636573730A00001CB501A9FE
:1021D000002000F0E7FC6946002000F0A1FC0B485D
:1021E0009DF8031041709DF8011081709DF8021058
:1021F000C1709DF8041001719DF8051041719DF8A2
:10220000061081719DF80010C1711CBDA401002051
:1022100010B50A460446002102F1B00000F0AFF804
:10222000102040EA1410002100F0A9F804F00F007B
:10223000BDE81040002100F0A2B800002DE9F041F7
:1022400015460E460746FFF7E3FF0F48002400EB54
:1022500085150121285D00F092F8641CE4B2102C71
:10226000F7D3761CF1B23846FFF7D2FF00242819C5
:10227000012190F8200000F082F8641CE4B2102CD8
:10228000F5D3BDE8F0810000AC0100202DE9F0415C
:10229000203A00240F468046D5B27F2803D900207B
:1022A0008F1C8046FFB2102B394610D0FFF7B0FFCD
:1022B000164905EB450001EB40050121285D00F0C2
:1022C0005EF8641CE4B2062CF7D3BDE8F081FFF79A
:1022D0009FFF0F4E04EB05100121305C00F04FF81A
:1022E000641CE4B2082CF5D37F1CF9B24046FFF71A
:1022F0008FFF002404EB051030440121007A00F028
:102300003EF8641CE4B2082CF4D3DEE79889000898
:10231000C08B00082DE9F05F0027DDF828A01D46DE
:1023200091468B4680463C464FEA5A0623E0281BDE
:10233000401EC1B20A2003F0EFF9B9FBF0F00A2108
:10234000B0FBF1F201FB120027B9691E8C4201DAE1
:1023500038B101273030C2B206FB0480C0B2534608
:1023600004E006FB0480C0B2534620225946FFF722
:102370008DFF641CE4B2AC42D9D3BDE8F09FC0B27B
:1023800009B101F08ABA01F071BA000000B59BB042
:102390000020169017901890199001A80EA25421B1
:1023A0001A9001F0A1FA01A91AA001F08DFA16A85D
:1023B000009001231AAA00211420FFF74FFC0028E7
:1023C00007D1179881B21698FEF752FE16A8FFF7AC
:1023D0000DFA1BB000BD0000247379732F307646D0
:1023E000323035636F5A362F456E7669726F6E6D77
:1023F000656E74616C5F4D6F6E69746F72696E6744
:102400002F7468696E672F70726F70657274792FA0
:102410007365740053756273637269626520546FEB
:102420007069633A2025730D0A00000030B58BB047
:10243000002106A80991CDE9041001240691CDE9F7
:1024400000410791089102910391230219A22049AA
:1024500020A0FFF713FA50BB079881B20698FEF749
:1024600007FEFA20FEF702FD05001DD0FFF746FD2E
:10247000022819D12846FFF77FFC062814D2DFE88E
:1024800000F003080A0C0E1015A001F01DFA00243C
:102490000AE019A006E019A004E019A002E019A0C2
:1024A00000E019A001F010FA06A8FFF79FF90BB0A1
:1024B000204630BD456E7669726F6E6D656E7461D3
:1024C0006C5F4D6F6E69746F72696E67000000001B
:1024D000DC920008307646323035636F5A360000A1
:1024E000544950533AE8BF9EE68EA5E68890E58AA7
:1024F0009F210D0A00000000310D0A00320D0A0074
:10250000330D0A00340D0A00350D0A0010B58CB0E9
:10251000044630216846FDF7D2FE25A12046FDF78E
:102520002AFF30216846FDF7CAFE274968460A7827
:1025300026A101F0EDF969462046FDF7CBFE3021DA
:102540006846FDF7BCFE274827A10278684601F0DF
:10255000DFF969462046FDF7BDFE30216846FDF7EC
:10256000AEFE274827A10268684601F0D1F9694606
:102570002046FDF7AFFE30216846FDF7A0FE274854
:10258000007808B126A200E027A229A1684601F040
:10259000BFF969462046FDF79DFE2AA12046FDF7BA
:1025A00099FE2046FDF7BEFE0CB0C0B210BD000083
:1025B0007B226964223A22313233222C22706172EA
:1025C000616D73223A7B0000020000202274656D69
:1025D00070223A7B2276616C7565223A25647D2CE7
:1025E00000000000000000202268756D69223A7B1F
:1025F0002276616C7565223A25647D2C000000000E
:1026000034000020226C69676874223A7B2276616C
:102610006C7565223A25647D2C0000003401002091
:10262000747275650000000066616C7365000000DF
:10263000226C656430223A7B2276616C7565223AA1
:1026400025737D007D7D00002DE9F047064688B0AA
:10265000002003900490ADF81400ADF818008DF838
:102660001C0004463046FFF749FC0546032816D0F7
:10267000042D6CD0092D72D04FF0FF34FEF7E8FB2B
:10268000641C09D00F2D01D0032D05D1049802F050
:10269000C9FD039802F0C6FD08B0BDE8F087354AD1
:1026A00007A906A88DE8070003AB05AA04A93046D0
:1026B000FFF770FB0400E1D1BDF818000090DDE9E0
:1026C0000331BDF814202CA001F0FEF8039802F0AD
:1026D000E7FC824637A102F0C7FC064637A102F0AC
:1026E000C3FC814637A1304602F0BEFC804637A1CC
:1026F000304602F0B9FC074636A1304602F0B4FC81
:102700000646B9F1000F06D0D9F80C00012800D018
:102710000020FFF72BF8B8F1000F06D0D8F80C0016
:10272000012800D00020FFF731F82FB1F868012808
:1027300000D00020FFF73AF82EB1F068012800D051
:102740000020FFF743F8504602F06AFC96E7304657
:10275000FFF7C8FB002891D120A005E0FFE7304635
:10276000FFF7FCFB18B125A001F0AEF886E72AA020
:10277000FAE70000DC0E0020746F7069633A2025D0
:10278000732C20746F7069635F6C656E3A202564EA
:102790002C207061796C6F61643A2025732C207055
:1027A00061796C6F61645F6C656E3A2025640D0A17
:1027B00000000000706172616D7300006C65643030
:1027C000000000006C656431000000006C6564323C
:1027D000000000006C6564330000000054697073F1
:1027E0003A094D515454205075626C6973682053F6
:1027F000656E64204F4B0D0A000000005469707331
:102800003A094D515454205375627363726962657D
:10281000204572720D0A0000546970733A094D51D7
:10282000545420537562736372696265204F4B0D77
:102830000A00000030B5C5B000204190429043909E
:10284000044644904FF4807101A8FDF738FD01A8BB
:10285000FFF75CFE05000BD041A800900523002285
:1028600029460FA0FFF7C6F970B114A001F02CF8AB
:1028700045B030BD015DDDE94123D1544299491C89
:10288000641C24B2429100E001A8AC42F2DB429801
:1028900081B24198FEF7ECFB41A8FEF7A7FFE7E7FE
:1028A000456E7669726F6E6D656E74616C5F4D6FAB
:1028B0006E69746F72696E67000000005741524E76
:1028C0003A094544505F4E657742756666657220E9
:1028D0004661696C65640D0A0000000001490862E8
:1028E0007047000000000E42044A0029116801D020
:1028F000014300E08143116070470000303802401E
:10290000044A0029116801D0014300E081431160AD
:102910007047000040380240044A0029116801D085
:10292000014300E0814311607047000044380240D9
:1029300070B5204B1968204C11F00C0104D06610C2
:10294000042903D0082903D004601BE0066019E0C5
:10295000184A121F1168C1F38055116801F03F0138
:1029600015B1B6FBF1F101E0B4FBF1F114681268A6
:10297000C4F388146143C2F30142521C5200B1FBFC
:10298000F2F1016019680F2202EA11110B4A545C3E
:102990000168E14041601C68072505EA9424145D44
:1029A00021FA04F484601B6805EA5333D25CD140F9
:1029B000C16070BD083802400024F40024010020EA
:1029C00002460020510901290BD002290CD00849E8
:1029D000096802F01F02012393400B4200D001203E
:1029E000704703497439F3E70149091FF0E7000014
:1029F00074380240054900220A700A70012802D08A
:102A0000042801D10520087070470000703802408A
:102A100001490860704700003C0E4742C0F30121A5
:102A2000032907D1074B1968074A21F4F81102401E
:102A30000A431A60034968310A68C0F30B00024375
:102A40000A60704708380240FFFCFF0F10B54FF4D2
:102A50008054204600F08AF800280AD0204600F072
:102A60002BF86001FEF7C0FBBDE8104001A000F0AC
:102A70002BBF10BD52544320416C61726D412054F4
:102A80007269676765726564210D0A00010901EBCF
:102A9000810100F00F0000EB4100C0B2704700213F
:102AA00003E0491C0A38C9B2C0B20A28F9D20907A2
:102AB00040EA116070470000C0F30F1040F0800042
:102AC000C1430348026802F080021143016070476D
:102AD0000C28004008B50D49002000900868400609
:102AE00012D44FF0FF3008608B130868009A00F092
:102AF0004000521C00929A4201D00028F5D008688C
:102B0000400601D4002008BD012008BD0C2800406B
:102B10000248016821F08001016070470C280040E4
:102B2000020010B50F480C4601680F4801EA000189
:102B30004FEA1140E070C1F30423637001F03F03DA
:102B4000A370C1F3423121700AD1FFF79FFFE070FB
:102B50006078FFF79BFF6070A078FFF797FFA07089
:102B600010BD0000042800403FFFFF000B4A002179
:102B7000126802F00403094A383A126803EAD033B3
:102B800002401A43064B1B6803EA101003D00004EE
:102B9000000C00D00121084670470000402800408A
:102BA0000C280040020010B510480C46016810487F
:102BB00001EA0001C1F305402070C1F306236370F0
:102BC00001F07F03A3704FF0400303EA1141E1706D
:102BD0000AD1FFF75BFF20706078FFF757FF607046
:102BE000A078FFF753FFA07010BD00000028004040
:102BF0007F7F7F003EB501210807FFF781FE01209E
:102C0000FFF76CFE0120FFF7F5FE4120FFF7D8FE2D
:102C10000028FAD04FF48070FFF700FF194CFF2016
:102C2000A0607F2060600120FFF7F2FE00F04EF907
:102C300060680190A068029000200090684600F053
:102C400053F804F110002421C1700921417027219B
:102C50008170052101700146012000F077F804F130
:102C60000C004021C170152101705921417055217E
:102C700081700146012000F0B5F803A000F024FEA9
:102C80003EBD0000440100205254435F494E495468
:102C9000436F6E6669675F494E49545F537563635E
:102CA000657373200D0A000030B50E4DCA222A60EC
:102CB00053222A600B4C0B4B1C3C1C33002920F088
:102CC0000402216800F0040004D011432160196857
:102CD000014303E091432160196881431960FF209B
:102CE000286030BD2428004070B5124D04460026EF
:102CF000CA20286053202860FFF7ECFEA8B10D48D9
:102D00001C38016821F0400101600168226811430C
:102D100001600848A168143801600168A28841EA8E
:102D200002410160FFF7F4FE0126FF2028603046D3
:102D300070BD00002428004008B5034901EB800065
:102D40000090006808BD00005028004070B50C4697
:102D50000026010060780FD0FFF798FEA078FFF7FB
:102D600095FEA078E17840EA01456078217800027C
:102D700040EA4130054315E0C10603D520F01000BC
:102D80000A306070E078FFF78AFE05046078FFF78C
:102D900086FE45EA0025A078FFF781FE05432078EE
:102DA00045EA40350D4CCA20206053202060FFF7D3
:102DB00091FE78B10A480540084820380560FFF7C1
:102DC000A7FE06481C380068800602D400F07EF892
:102DD00000B10126FF202060304670BD242800404D
:102DE0003FFFFF002DE9F0410C460026234F010074
:102DF0002078396832464FEA416104D0002930DA40
:102E0000FFF744FE2EE0002900DBE270FFF747FEEB
:102E100005046078FFF743FE45EA0025A078FFF738
:102E20003EFE0543E07845EA0045144CCA201C34B8
:102E3000206053202060FFF74DFE68B11048054028
:102E40000E4808380560FFF763FE3868800602D434
:102E500000F03CF800B10126FF2020603046BDE8BC
:102E6000F081E270A078217840EA01456078E1784D
:102E7000000240EA01400543D7E70000082800406F
:102E80007F7F7F000549CA220A6053220A60034AF5
:102E9000103A1060FF2008607047000024280040AE
:102EA00010B54FF480442046FFF760FE00280AD09A
:102EB0000549012008702046FFF7FEFD2002BDE80D
:102EC0001040FEF791B910BD4401002018B5002054
:102ED000104B0090CA201860532018600D49183913
:102EE000086820F0A00008604FF400340868009AD9
:102EF00000F02000521C0092A24201D00028F5D020
:102F00000868800601D5012000E00020FF2119603B
:102F100018BD000024280040084ACA21116053212E
:102F2000116006491C390B6823F007030B600B681E
:102F300003430B60FF20106070470000242800400E
:102F400018B50021134B0091CA2119605321196053
:102F500010491C390028086803D040F480600860DC
:102F600014E020F4806008600A4918398C1308685E
:102F7000009A00F00400521C0092A24201D00028E6
:102F8000F5D00868400701D4002000E00120FF21AF
:102F9000196018BD242800403EB50120FFF79EFCB3
:102FA0000020FFF7CDFF0420FFF7B6FF0020FFF75A
:102FB00069FF4FF480452846FFF77EFD2C0220462E
:102FC000FEF712F901212846FFF76EFE0120FFF7F8
:102FD000B7FF00258DF80450082000948DF80500F7
:102FE00001248DF806406846FEF752F903208DF85B
:102FF00008008DF809008DF80A508DF80B4002A8E2
:10300000FEF7C4FF01A000F05FFC3EBD5254435FD9
:10301000494E4954436F6E6669675F494E49545F34
:10302000454E44200D0A000008B5034A02EB80001B
:103030000090016008BD0000502800407CB50446A7
:10304000FDF7ACFEFDF730FE30BB00256E46FDF708
:1030500097FE70556D1CEDB2052DF8D39DF800005C
:103060009DF801509DF802109DF803304219CE18CA
:1030700016449DF80420964204D120706570A1701A
:10308000E370227120786178E2780844A1781144D5
:1030900008442179884201D101207CBD00207CBDFB
:1030A0001CB54FF480618DF8040001208DF80600F6
:1030B00003208DF80500002000918DF80700694677
:1030C0000148FEF73DFA1CBD000C024010B58A070E
:1030D00021F003040849120F21440F23D1F80848B6
:1030E00093409C43C1F80848D1F808389040034306
:1030F000C1F8083810BD0000003001400CB50022B6
:10310000274900920192086840F4803008604FF42B
:10311000A043086800F4003001900098401C009023
:10312000019810B900989842F3D10868800334D50B
:10313000012001901A484030026842F0805202603B
:103140001848026842F4404202601548083002689C
:103150000260026842F400420260026842F4A05237
:103160000260031F104A1A600A6842F080720A6007
:103170000A689201FCD50D4940F205720A600168A7
:1031800021F003010160016841F002010160016862
:10319000C1F381010229FAD10CBD01920CBD0000DE
:1031A000003802400070004008544007003C0240D4
:1031B00010B5502080F31188BFF34F8FBFF36F8F8E
:1031C00005F06CF918B104494FF0805008600020F8
:1031D00080F3118810BD000004ED00E0124810B526
:1031E000016841F4700101601048016841F001017B
:1031F00001600E4A00210832116002680C4B1A402F
:103200000260031D0B4A1A60026822F480220260E9
:1032100006480C300160FFF771FF03494FF0006072
:103220008039086010BD000088ED00E000380240E1
:10323000FFFFF6FE1030002410B50A4C0121204695
:1032400000F077F800280CD00748D0F8A41281F0DD
:103250000101C0F8A4122046BDE81040012100F091
:1032600065B810BD000001400080424210B5012148
:103270008C07204600F05DF800280CD00648D0F8F6
:10328000A81281F00101C0F8A8122046BDE8104044
:10329000012100F04BB810BD0080424210B50A4C2D
:1032A0000121204600F045F800280CD00748D0F84E
:1032B000B41281F00101C0F8B4122046BDE81040FC
:1032C000012100F033B810BD00040040000042426C
:1032D00010B5084C0121204600F02BF8002807D03B
:1032E000FEF7CAF92046BDE81040012100F01EB8E3
:1032F00010BD00000014004010B50A4C012120460A
:1033000000F017F800280CD00748D0F8B81281F068
:103310000101C0F8B8122046BDE81040012100F0BC
:1033200005B810BD0004014000004242C9430182BB
:10333000704702460020138A92890B4202EA01027A
:1033400002D0002A00D00120704700002DE9F04192
:10335000144C40F225552946204600F05BF9002820
:103360001DD0204600F0E4F90F490026C3B24A8878
:10337000FF2A0DD20D4FBB54521C90B24880232B14
:1033800007D1384400F8016C4E800120087000E03D
:103390004E8029462046BDE8F04100F024B9BDE842
:1033A000F0810000001001403A010020740F00205D
:1033B000F0B50746012187B00846FFF795FA0121CD
:1033C0001020FFF7A9FA294E072209213046FEF7FF
:1033D000F3F807220A213046FEF7EEF800248DF8B4
:1033E000164001258DF8175002208DF814004FF477
:1033F000C06104918DF8150004A93046FEF7A0F8CD
:10340000ADF808400C201A4EADF80440ADF80A00A3
:103410000097ADF80640ADF80C406946304600F024
:1034200031F90121304600F0E4F84021304600F047
:10343000D7F825208DF818008DF819408DF81A401E
:103440008DF81B5006A8FEF7A1FD40F22554214639
:10345000304600F0C8F801222146304600F0F9F865
:1034600004A000F031FA07B0F0BD000000000240F7
:10347000001001405553415254315F494E49545F49
:10348000537563636573730D0A00000070B50C4CCF
:1034900040F225552946204600F0BCF800280ED001
:1034A000204600F045F9074A9080918806A000F078
:1034B0000BFA29462046BDE8704000F094B870BD74
:1034C000004400403A0100202563000010B50E4C76
:1034D00040F22551204600F09DF8002813D00B4AF9
:1034E0001088FF2801D9002010800748001D00889F
:1034F000074B11885854491C11802046BDE81040E4
:10350000202100F06DB810BD00480040D80E00200A
:10351000C8100020F0B5074687B001210220FFF750
:10352000E3F901218804FFF7EBF9254E07220A2170
:103530003046FEF741F807220B213046FEF73CF8F3
:1035400000248DF8164001258DF8175002208DF8C3
:1035500014004FF44060049003208DF8150004A976
:103560003046FDF7EDFFADF808400C20154EADF8E4
:103570000440ADF80A000097ADF80640ADF80C40E5
:103580006946304600F07EF827208DF818008DF847
:1035900019508DF81A408DF81B5006A8FEF7F6FC5E
:1035A000012240F22551304600F053F80121304607
:1035B00000F01FF804A000F087F907B0F0BD00008C
:1035C00000040240004800405553415254335F49C3
:1035D0004E49545F537563636573730D0A000000B1
:1035E000C943018070470A0A01219140C943018003
:1035F00070470029818902D041F4005101E021F493
:103600000051818170470246002012880A4200D092
:103610000120704770B501F01F0501260024C1F399
:10362000421306FA05F2012B0FD0022B0FD0838A2A
:103630004FEA11210088134206FA01F600EA06005B
:1036400001D000B10124204670BD8389F0E7038AD0
:10365000EEE710B5C1F3421301F01F040121A140B0
:10366000012B07D0022B07D01430002A026805D0A6
:103670000A4304E00C30F8E71030F6E78A430260B2
:1036800010BD00007FB50446008A0D46C98820F4AD
:10369000405001432182A08941F20C618843A988EE
:1036A0002A8911436A8902431143A181A08A20F427
:1036B0004071A8890843A0826846FFF739F91A4883
:1036C000844202D01948844201D1039800E0029854
:1036D000A189090400EBC00101EB0010296801D5A4
:1036E000490000E08900B0FBF1F06422B0FBF2F188
:1036F00009010B096FF018056B4300EB8300A389E8
:103700001D044FF0320306D503EBC000B0FBF2F00E
:1037100000F0070005E003EB0010B0FBF2F000F052
:103720000F00084320817FBD0010014000140140BC
:103730008088C0F308007047C1F30801818070479A
:1037400070B50D46044680212046FFF75CFF002837
:10375000F9D029462046FFF7EFFF40212046FFF72A
:1037600052FF0028F9D070BDFEE72DE9F041164662
:103770000D46074600240CE015F8011B3846FFF7FC
:10378000DBFF40213846FFF73EFF0028F9D0641CDC
:10379000A4B2B442F0D3BDE8F0810000014900209A
:1037A00008607047082C0040034900200968002980
:1037B00000D0012070470000082C004010B5FFF732
:1037C000F3FF28B104A000F07FF87F2000F00EF88E
:1037D000BDE81040FFF7E2BF5757444720747269B5
:1037E000676765726564210D0A000000024900F0F8
:1037F0007F00086070470000002C00402DE9F04772
:1038000081460120FFF74CFC164D0026C5F8BC622E
:10381000154FC7F8A862052001F09AFC00244FF06C
:10382000010AA846C4F107010AFA01F0554610EA58
:10383000090F02D0C7F8A85201E0C7F8A862052016
:1038400001F086FCC8F8BC52052001F081FCC8F8E4
:10385000BC62052001F07CFC641CE4B2082CE1D3BE
:10386000BDE8F087008040420080414210B5044628
:10387000FDF7B8FE7820FFF7C1FFFDF7EBFE002053
:10388000FFF7BCFFFDF7E6FE2046FFF7B7FFFDF7A9
:10389000E1FEBDE81040FDF7C1BE10B50446FDF7DE
:1038A000A1FE7820FFF7AAFFFDF7D4FE4020FFF726
:1038B000A5FFFDF7CFFE2046FFF7A0FFFDF7CAFEEC
:1038C000BDE81040FDF7AABE0FB4054B10B503A923
:1038D000044A029800F0FCFF10BC5DF814FB0000E5
:1038E00011520008400100200FB41CB50A46521EB8
:1038F000CDE9000207A9054B6A46069800F0E8FFEB
:10390000009A002111701CBC5DF814FBFF4F0008E9
:103910000FB4084B10B504A902AA039800F0D8FF11
:10392000044602A9002001F075FB204610BC5DF89A
:1039300014FB00001550000803B4019841000098E2
:1039400050EAC12018BF04204A0D18BF40F0010002
:1039500040F2FF72B2EB515F08BF40F00200012855
:1039600008BF052002B070472DE9F04D2DED040B86
:103970002DED0C8B96B0DDE92350259CDDF888A059
:1039800025F0004624F00048BAF1000F14BF0121D1
:10399000002101EB4502FE4953184A1093422AD3F5
:1039A000002814BF0123002303EB44030B44F9490F
:1039B0008B4220D358EA00019FEDF78B6FD0DFF8E0
:1039C000E0B35D4503D1BAF1000F05D187E0BAF14C
:1039D000000F08BF002100D0012101EB450111F5C6
:1039E000001F08D8002814BF0121002101EB440169
:1039F00011F5001F0BD99DED241B9DED220B16B078
:103A0000BDEC0C8B04B0BDE8F04D00F05DBE0027AE
:103A1000002DBCBFE349884521DAE3498845A8BFAA
:103A200002271CDAC3451ADCE04901EB28511429AE
:103A300008DDC1F1340220FA02F101FA02F28242F9
:103A40000DD108E058B9C1F1140228FA02F101FAC7
:103A500002F2424503D101F00101C1F1020756EA29
:103A60000A011DD1002C1BDA002D18BF022F01D036
:103A7000012F0AD0022000F073FE16B0BDEC0C8BB3
:103A800004B0BDE8F04D00F007BE022000F068FE73
:103A900000F002FE51EC100B81F0004183E01EE0CB
:103AA0009FEDC39B9FEDC4AB002872D1BD488045FC
:103AB0002DD105F1804010F5801008BFBAF1000F3C
:103AC0000DD0B34515DC002CA1BF9DED240B16B025
:103AD000BDEC0C8B04B0A8BFBDE8F08D12E0B0EED9
:103AE000480AF0EE680A16B0BDEC0C8B04B0BDE8D5
:103AF000F08D002C06DA9DED240B51EC100B81F0BB
:103B0000004150E0AE48784490ED000BEBE7D8451B
:103B10004FD1002C4ADA2EB186423BD1BAF1000FC8
:103B200044D126E0BAF1000F13D0022000F018FEB5
:103B300000F0E6FD8DED020B9DED220B8DED000BEF
:103B400010EE900A039961F31E0003909DED020BA5
:103B5000C9E78DED029B9DED220B19EE901A10EE38
:103B6000900A8DED000B61F31E0003909DED020B9A
:103B7000B9E78DED02AB9DED220B1AEE901A10EE17
:103B8000900A8DED000B61F31E0003909DED020B7A
:103B9000A9E729E00ADA9DED220B51EC180B53EC52
:103BA000102BFCF736FE41EC100B9CE79DED220B31
:103BB00099E7864218DAB4F1804F0DD0A4F1005095
:103BC000B0F1FF5010D1002D0EDB9DED220B51EC1A
:103BD000100B03F0B5F9E6E79DED220B53EC102B2B
:103BE00051EC100B00F0AEBC9DED220B51EC100B14
:103BF00001F002FBBAF1000FCDE90C0134D19FEDC9
:103C0000720BDEB1A6F1E040B0F17F602CD1002D47
:103C100001DD002C0DDA002D01DD002C1FDB002D55
:103C200016DA002C14DB012F08BF9FED690B3FF45F
:103C30005AAFB0EE490AF0EE690A54E7022F18BFF6
:103C4000002D0CD0012F0AD1002DFFF64CAF06E05D
:103C5000002DB8BF002C07DA012F3FF444AFB0EEBF
:103C60004A0AF0EE6A0A3EE7012000EBE57A5AEADA
:103C700007000CD05848002580457CDD574958483E
:103C8000884514DDB0420DDB002C19DB2BE0012050
:103C900000F066FD16B0BDEC0C8B04B0BDE8F04D35
:103CA00000F01EBDB34502DC002C09DC1BE086429F
:103CB00002DA002C17DA03E05E4527DD002C12DD66
:103CC000022000F04DFD00F01BFD10EE901A19EEE1
:103CD000900A8DED020B8DED009B61F31E000390A9
:103CE0009DED020BFFE6022000F03AFD00F018FD0A
:103CF00010EE901A18EE900A8DED020B8DED008BF0
:103D000061F31E0003909DED020BECE69DED220B8E
:103D100053EC182B51EC100BFCF7E6FB9FED320B2C
:103D2000CDE90A0153EC102B9DED0A0B51EC100B61
:103D3000FCF7E0FB9FED2E1B53EC112BFCF7D7FBA0
:103D40009DED0A1B53EC112BFCF7D4FB9FED2A1BB6
:103D500053EC112BFCF7CBFB9DED0A0B41EC190B3F
:103D600053EC102B51EC100BFCF7C4FB53EC192B4C
:103D7000FCF7C0FB00E07EE09FED210B41EC1A0B4D
:103D800053EC102B9DED0A0B51EC100B3CE00000A6
:103D9000FFFF1F00FFFF0F00000000000000F03FCA
:103DA0000000F03F0000F07F0000404301FCFFFFF7
:103DB000000000000000F07F000000000000000094
:103DC00036570000000000000000000000000080E6
:103DD000000000000000F0FF0000E0410000F043A0
:103DE000FFFFEF3F00000000000000000000D03F98
:103DF000555555555555D53F000000000000E03F92
:103E0000000000604715F73FFCF774FB41EC190B0D
:103E10009FEDFD0B51EC1A0B53EC102BFCF76AFBDA
:103E200041EC1A0B9FEDFA0B53EC102B9DED0A0B96
:103E300051EC100BFCF75EFB53EC1A2BFCF754FB18
:103E400041EC1A0B51EC190B53EC1A2BFCF7ABFAA3
:103E50000690CDE906519DED060B53EC192B51EC64
:103E6000100BFCF741FB53EC1A2BFCF740FB41EC29
:103E7000100B00F09FB90020B6F5801F0EDA9FED01
:103E8000E60B53EC102B9DED0C0B51EC100BFCF7DB
:103E900031FBCDE90C016FF034000E4600EB2650EB
:103EA000A0F2FF38C6F31300DD4940F07F6646F00C
:103EB00040568842D8BF002409DDDA498142C8BF94
:103EC000012404DC0024A6F5801608F10108D64878
:103ED000784400EBC4000D9690ED00BB9DED0C0BFB
:103EE00053EC1B2B51EC100BFCF7FEFA9DED0C0B69
:103EF00041EC1A0B53EC1B2B51EC100BFCF753FA53
:103F000041EC100B51EC180B53EC102BFCF781FC1F
:103F100041EC1C0B51EC1A0B53EC1C2BFCF7EAFA8E
:103F200041EC190BC1488DED109B7844109590ED34
:103F3000000B4FF0005040EA660000EB84408DED2E
:103F40000A0B00F500200B909DED0A0B53EC1B2B88
:103F500051EC100BFCF7C8FA9DED0C1B53EC112B28
:103F6000FCF7C5FA41EC100B53EC102B9DED100B38
:103F700051EC100BFCF7BEFA9DED0A0B41EC1B0B4C
:103F800053EC102B9DED100B51EC100BFCF7B2FA1B
:103F900053EC1A2BFCF7ABFA53EC1B2BFCF7A4FAEF
:103FA00053EC1C2BFCF7A6FA41EC1B0B53EC192B22
:103FB00051EC190BFCF79EFA41EC1A0B9C480621B8
:103FC000B0EE4A0AF0EE6A0A784400F0E9FAB0EE80
:103FD00040CAF0EE60CA53EC1A2B51EC1A0BFCF7F6
:103FE00089FA53EC1C2BFCF785FA9DED100B41EC84
:103FF0001A0B53EC192B51EC100BFCF7D4F953ECC2
:104000001B2BFCF777FA53EC1A2BFCF7CCF99DED40
:10401000100B41EC1A0B53EC102B51EC100BFCF76E
:1040200069FA41EC1C0B9FED84DB53EC1D2BFCF774
:10403000BAF953EC1A2BFCF7B6F90A90CDE90A51FC
:104040009DED0A0B53EC1D2B51EC100BFCF74CFAB9
:1040500053EC1C2BFCF748FA53EC1A2BFCF747FAED
:104060009DED0A0B41EC1C0B53EC102B9DED100B3E
:1040700051EC100BFCF73EFA41EC1A0B53EC192BE8
:1040800051EC1C0BFCF736FA9DED0A0B41EC190BB9
:1040900053EC102B51EC1B0BFCF72CFA53EC192BA7
:1040A000FCF781F941EC190B51EC1A0B53EC192B6D
:1040B000FCF779F91090CDE910519DED100B53EC00
:1040C0001A2B51EC100BFCF70FFA53EC192BFCF7E1
:1040D0000EFA41EC190B9FED5A0B53EC102B9DED92
:1040E000100B51EC100BFCF705FA41EC1A0B9FED8D
:1040F000560B51EC190B53EC102BFCF7FBF941EC70
:10410000190B9FED530B53EC102B9DED100B51EC45
:10411000100BFCF7EFF953EC192BFCF744F941ECC9
:10412000100B4D48784400EBC40090ED001B51EC9F
:10413000100B53EC112BFCF736F941EC190B4046F0
:10414000FCF74AFACDE90A0153EC192B51EC1A0B92
:10415000FCF729F941EC100B4048784400EBC4000F
:1041600090ED00BB51EC100B53EC1B2BFCF71BF933
:104170009DED0A1B53EC112BFCF715F90690CDE9C8
:1041800006519DED0A0B53EC102B9DED060B51ECE7
:10419000100BFCF7A9F953EC1B2BFCF7A5F953EC1A
:1041A0001A2BFCF7A1F953EC192BFCF7A0F941EC01
:1041B000100B00BF781EB0EE48AAF0EE68AA5AEACB
:1041C000000008BF9FED268B9DED241B53EC102BA8
:1041D0008DED001B00959DED240B51EC100BFCF7B1
:1041E00089F99DED000B41EC190B53EC102B9DED63
:1041F000240B51EC100BFCF777F99DED061B53ECEB
:10420000112BFCF777F92FE0FE822B654715F73F5E
:1042100044DF5DF80BAE543E000000000000404358
:104220008E9803007AB60B00E4520000125300008F
:104230001C520000000000000000000000000840C8
:10424000000000E009C7EE3FFD033ADC09C7EE3F7E
:10425000F5015B14E02F3EBEB05000006A50000034
:10426000000000000000F0BF53EC192BFCF79BF896
:104270009DED060B41EC190B53EC102B9DED000B43
:1042800051EC100BFCF736F9CDE910019DED100B48
:1042900051EC190B53EC102BFCF785F8CDE902011A
:1042A0000C46AB498C422FDB611A084318D19DEDB7
:1042B000100B53EC102B9DED020B51EC100BFCF787
:1042C00013F941EC1B0B9FEDA40B51EC190B53ECB4
:1042D000102BFCF768F853EC1B2BFCF7ADF92DD233
:1042E000022000F03DFA00F00BFA10EE901A18EEE2
:1042F000900A8DED020B8DED008B61F31E00039093
:104300009DED020BFFF7EFBB954A24F0004191426F
:1043100014D39449214408437FF4E5AC9DED100B80
:1043200053EC102B9DED020B51EC100BFCF7DCF85D
:1043300053EC192BFCF780F97FF6D5AC24F0004044
:1043400089498A4A002601EB205182422BDA481C17
:104350004FF4801121FA00F02044854AC0F30A513D
:104360007A44A1F2FF3192ED000B824A8DED0A0BE7
:10437000CA4020EA0202C0F3130040F48010C1F1E9
:10438000140120FA01F60B92002CB8BF76429DED85
:104390000A0B53EC102B9DED100B51EC100BFCF79E
:1043A000A3F8CDE910019DED100B51EC190B53EC66
:1043B000102BFBF7F8FF9FED700B0A90CDE90A5127
:1043C00053EC102B9DED0A0B51EC100BFCF792F8FF
:1043D00041EC1B0B9FED6A0B53EC102B9DED0A0B70
:1043E00051EC100BFCF786F89DED100B41EC1C0B0B
:1043F00053EC102B9DED0A0B51EC100BFCF774F8ED
:1044000053EC192BFCF773F89FED5F1B53EC112B4A
:10441000FCF770F853EC1C2BFBF7C5FF41EC190BB4
:1044200051EC1B0B53EC192BFBF7BDFFCDE902013F
:104430009DED020B53EC1B2B51EC100BFCF754F8C9
:1044400053EC192BFCF753F89DED020B41EC190BC3
:1044500053EC102B51EC100BFCF74CF8CDE90A0192
:104460004B489DED0A0B0521784400F099F89DED2D
:104470000A1B51EC100B53EC112BFCF73BF89DED94
:10448000021B53EC112BFCF732F8CDE906019DED30
:10449000020B53EC192B51EC100BFCF72BF853ECDF
:1044A000192BFBF780FF9FED3C0B41EC190B53ECF4
:1044B000102B9DED060B51EC100BFCF715F89DED44
:1044C000060B41EC1B0B53EC102B9DED020B51EC3A
:1044D000100BFCF70FF853EC1B2BFCF79AF953EC7D
:1044E000192BFCF701F89DED021B53EC112BFBF788
:1044F000FBFF53EC1A2BFBF7FAFFCDE9020101EBAE
:10450000065001150029C8BF039015DC9DED020B74
:10451000324651EC100BFCF7EBF9FFF70DFA0428CB
:1045200008BF00F0FDF832469DED020B51EC100B78
:10453000FCF7DEF9CDE902019DED020B51EC180B01
:1045400053EC102BFBF7D6FFFFF72DBB000000004C
:104550000000904000000000FE822B654715973C4C
:1045600000CC904000346F3F01FCFFFF0000E03FB3
:10457000DC4E0000FFFF0F0000000000432EE63F6E
:10458000396CA80C615C20BEEF39FAFE422EE63F82
:10459000AC4D0000000000000000000000000040E2
:1045A00070B504462DED028B4D1E00EBC500B0EE3C
:1045B000408AF0EE608A90ED000B35F0060017D0CF
:1045C00053EC182B51EC100BFBF794FF41EC100B44
:1045D0006D1E04EBC50090ED001B51EC100B53EC6D
:1045E000112BFBF7E0FE41EC100B35F00600E7D194
:1045F000022D36D0042D1CD0062D1CBFBDEC028B25
:1046000070BD53EC182B51EC100BFBF773FF94EDBE
:104610000A1B53EC112BFBF7C6FE53EC182BFBF7D0
:1046200069FF94ED081B53EC112BFBF7BCFE41EC2A
:10463000100B53EC182B51EC100BFBF75BFF94EDB8
:10464000061B53EC112BFBF7AEFE53EC182BFBF7BC
:1046500051FF94ED040B53EC102BFBF7A4FE41EC3F
:10466000100B53EC182B51EC100BFBF743FF94EDA0
:10467000021B53EC112BFBF796FE53EC182BFBF7A8
:1046800039FF94ED001B53EC112BFBF78CFEBDECB6
:10469000028B41EC100B70BD9FED070B10B553EC76
:1046A000102B9FED070B51EC100BFCF7B2F841EC0F
:1046B000100B10BD00000000000000000000000012
:1046C000000000000000F03F10B553EC112B51EC3E
:1046D000100BFBF768FE41EC100B10BD0000000052
:1046E0009FED050B10B553EC102B51EC100BFCF7A4
:1046F00090F841EC100B10BD00000000000000001D
:104700009FED050B10B553EC102B51EC100BFBF784
:10471000F1FE41EC100B10BD000000000000007025
:104720009FED050B10B553EC102B51EC100BFBF764
:10473000E1FE41EC100B10BD000000000000001075
:1047400002E008C8121F08C1002AFAD1704770475A
:10475000002001E001C1121F002AFBD170470000B8
:104760000149086070470000700F00202DE9FF5FCD
:10477000DDE90220010DDDF838B0024318D044F61F
:104780001050A1F2FF3141430D140F98012820D0A1
:10479000A5EB0B00401C5FEA000A4FF00004474EF7
:1047A000DFF81C91A046504616D5CAF1000728E054
:1047B0000F98012443A2012808D0002100980F9BE4
:1047C000C0E90021C0E90243BDE8FF9F6FEA0B0189
:1047D000F4E7CBF10000DEE7074612E0F80707D068
:1047E0002246334640464946FBF784FE80468946CA
:1047F0002246334610461946FBF77CFE04460E4619
:104800007F10002FEAD1DDE90201BAF1000F424624
:104810004B4602DAFBF76EFE01E0FBF7FAFF0446B7
:104820000E460022284BFBF707FF03D84FF0FF305E
:10483000014607E00022254B20463146FBF7B3FD39
:10484000FCF76DF8102409E0002C0ADB0A22002393
:10485000FBF720FF019B30321A55641E50EA01021B
:10486000F2D1641C019AC4F1110314440F9A012A75
:1048700003D0012208430DD10AE0084304D00020F0
:104880004FF0110B0F9080E7A3EB0B056D1E0DE0B1
:104890005B4504DD4FF0000205F1010504E003DA99
:1048A0004FF00002A5F10105002AECD000980F9905
:1048B000C0E90231C0E9004586E70000000024405D
:1048C0000000F03F300000000000F0430000E03F37
:1048D0002DE9FF4F95B09B468946064600250FE21D
:1048E000252877D100242746F84A0121059400E0C5
:1048F000044316F8013F203B01FA03F01042F7D1C0
:1049000030782A2811D06FF02F033078A0F13002D0
:10491000092A16D8059A44F0020402EB820203EB3E
:1049200042021044761C0590EFE759F8042B0592DB
:10493000002A03DA504244F40054059044F0020483
:10494000761C30782E2816D116F8010F44F0040496
:104950002A280DD06FF02F023078A0F13003092BF8
:1049600009D807EB870302EB4303C718761CF3E76C
:1049700059F8047B761C30786C280FD006DC4C2864
:1049800017D068280DD06A2814D104E0742810D0FC
:104990007A280FD10DE044F400140AE044F48014A6
:1049A00001E044F440147278824202D104F580148C
:1049B000761C761C307866280BD013DC582877D00C
:1049C00009DC002875D04528F6D04628F4D04728C1
:1049D0001AD19DE118E0632835D0642879D0652884
:1049E00012D195E1702873D008DC6728F1D06928CE
:1049F0006FD06E280DD06F2806D1B5E073282CD06B
:104A0000752875D0782874D05A46179990476D1C30
:104A100075E1C4F30250022809D003280DD0D9F85B
:104A2000001004280DD00D6009F1040967E1D9F8E0
:104A30000010EA17C1E90052F6E7D9F800100D801E
:104A4000F2E70D70F0E719F8041B8DF80010002054
:104A50008DF80100EA46012003E059F804AB4FF05D
:104A6000FF3061074FF0000102D40DE008F10101B1
:104A70008846B9420FDA8045F8DB1AF80810002999
:104A8000F4D108E008F1010188468142FADB1AF806
:104A900008100029F6D105985B46A0EB08072146CF
:104AA0003846179A00F094FA284400EB080507E00E
:104AB0004DE029E10DE01AF8010B5A46179990478D
:104AC000B8F10108F7D25B4621463846179A13E140
:104AD00042E00A220092C4F302524FF0000A022A76
:104AE00008D059F804CB032A4FEAEC710AD00DE044
:104AF00029E02AE009F1070121F00702F2E802C1EA
:104B0000914609E00FFA8CFC4FEAEC71042A03D1BC
:104B10004FFA8CFC4FEAEC71002907DA0A460021B3
:104B2000DCF1000C61EB02012D2202E0220504D52C
:104B30002B228DF80420012203E0E20701D020227D
:104B4000F7E7904659E00A2102E010220DE010211B
:104B50004FF0000A00910BE010224FF0000A44F0E1
:104B600004040827009203E008224FF0000A009294
:104B7000C4F30252022A05D059F804CB0021032ABB
:104B800008D009E009F1070121F00702F2E802C1AB
:104B9000914605E01FFA8CFC042A01D10CF0FF0CB1
:104BA0004FF00008220728D5702806D0009B83F01C
:104BB000100353EA0A0305D00EE040228DF80420CA
:104BC000012208E05CEA010206D030228DF80420C0
:104BD0008DF8050002229046009B83F0080353EAFB
:104BE0000A030AD15CEA010201D1620705D530222D
:104BF0008DF804204FF001087F1E582804D034A0FF
:104C000003900EA802900DE036A0F9E753466046E7
:104C1000009AFBF73FFD84460398825C0298401E91
:104C2000029002705CEA0100F0D1029806A9081A0D
:104C300000F1200A600702D524F4803400E0012747
:104C4000574502DDA7EB0A0000E0002000EB0A0157
:104C5000009005984144401A0590E00306D45B4655
:104C60002146179A059800F0B3F90544002706E09D
:104C700001A85A46C05D179990476D1C7F1C474597
:104C8000F6DBE0030CD55B462146179A059800F049
:104C90009FF9054404E030205A46179990476D1C4F
:104CA0000099481E00900029F5DC08E0029802995E
:104CB0005A460078491C0291179990476D1CBAF129
:104CC0000001AAF1010AF1DC65E1000009280100F8
:104CD0003031323334353637383961626364656672
:104CE0000000000030313233343536373839414234
:104CF000434445460000000000F058F90544761C86
:104D0000307800287FF4ECAD19B02846BDE8F08F6C
:104D1000620700D4062709F1070222F0070CFCE81D
:104D20000223E14603F000485FEA080C02D00FF2CC
:104D3000702C0DE05FEA045C02D50FF2682C07E0EE
:104D40005FEAC47C02D00FF2602C01E0AFF2700C7D
:104D50004FF0FF3823F00043CDF850C065280CD049
:104D600006DC452809D046281DD047283DD13DE026
:104D7000662818D067287ED138E00021112F01DB8A
:104D8000112000E0781CCDE9000106A90EA8FFF76C
:104D9000EDFCDDE90F010E9A03910021009207F16D
:104DA000010A04914DE04FF000400097CDE9011059
:104DB00006A90EA8FFF7DAFCDDE90F0203920E9BAD
:104DC00011990022DDF80CA00093049211B9791C0E
:104DD00000EB010AB7EB0A0004D4C0F1FF3007F181
:104DE000010A0490AAEB0700019044E0012F00DAC9
:104DF00001270021112F01DD112000E03846CDE907
:104E0000000106A90EA8FFF7B1FCDDE90F010E9A1B
:104E10000391002104910092BA4621070CD4039912
:104E2000514500DA8A46BAF1010F05DD009AAAF170
:104E30000101515C302908D0B84202DA10F1040FA8
:104E400006DA0121CDE9011015E0AAF10101E9E737
:104E5000002805DC049901440491AAEB000102E05A
:104E6000411C514500DD8A460499401A401C0190BE
:104E70004FF000400290200704D40198504501DB18
:104E8000CDF8048000208DF84F0002980DF14F07F7
:104E9000B0F1004F25D02B200E9002984FF0020861
:104EA00000280CDA404202902D200E9007E00A21E3
:104EB0000298FBF7D9FB3031029007F8011DB8F1D9
:104EC0000001A8F10108F2DC02980028EFD1791E58
:104ED0000E980870307800F0200040F0450007F888
:104EE000020D12A8C01B00F107081498007800B149
:104EF000012000EB0A01019801EBE07105984144A3
:104F0000401A401E0590E00306D45B462146179ADE
:104F1000059800F05DF805441498007818B15A46D9
:104F2000179990476D1CE00324D55B462146179ADC
:104F3000059800F04DF805441CE00498002807DBB4
:104F4000DDE90301884203DD0098405C179901E028
:104F5000179930205A469047049805F10105401CE6
:104F600004900198401E019004D12E205A461799B2
:104F700090476D1CBAF10001AAF1010ADDDC05E0E1
:104F800017F8010B5A46179990476D1CB8F10001AC
:104F9000A8F10108F4DC5B462146179A0598ABE6B8
:104FA0002D0000002B000000200000002DE9F04142
:104FB000044600251E461746880404D405E03946F9
:104FC0002020B0476D1C641EF9D52846BDE8F0814D
:104FD0002DE9F041044600251E469046C80301D540
:104FE000302700E02027880404D505E041463846F4
:104FF000B0476D1C641EF9D52846BDE8F0814A68AB
:10500000002A06D00A68531C0B6010704868401EC6
:10501000486070470A68531C0B60107070470000AE
:1050200070B504460F4E19E0A0892568C0050AD462
:10503000A06820B1FFF7F4FFA089C00503D4206960
:1050400008B171688847A089800503D4206A08B137
:10505000716888477168204688472C46002CE3D148
:1050600070BD0000E00E002070B50D46846800E0C1
:1050700024682CB12946206A00F046F80028F7D1B0
:10508000204670BD054910B50968282088470400EE
:1050900002D02821FBF713F9204610BDE00E0020B6
:1050A00000221146AFF300802DE9F04190460E46F4
:1050B0000446FFF7E7FF134F05004FF00000B8600C
:1050C00015D0204601F032FF0146284600F092FD3F
:1050D00004000FD0B8F1000F10D0204601F026FFD9
:1050E0000446007850B12846FFF79AFFBC600020C4
:1050F000BDE8F0812846FFF793FFF8E706B134607A
:105100002846F5E7E00E002070B504000D4601D0FA
:105110000DB108E009B1012070BD002070BD00286C
:10512000FCD0641C6D1C2078FBF7AAF80646287892
:10513000FBF7A6F886422078F1D0FBF7A1F80446E9
:105140002878FBF79DF8201A70BD02F0EBBA00003A
:105150002DE9F0414FF0E0280024D8F814700E4AF1
:105160000E4BD8F818501268B2FBF3F6464302F023
:10517000DBFC41468869A842FCD002D2A5EB0002C4
:1051800002E0A7EB00022A4414440546B442F1D3DE
:10519000BDE8F04103F044BB1001002040420F0085
:1051A0001CB54FF40070009000208DF80400012120
:1051B0008DF8061003218DF805108DF8070069465B
:1051C0000148FCF7BDF91CBD001802401CB54FF4A6
:1051D0000070009001208DF804008DF80600032077
:1051E0008DF8050000208DF8070069460148FCF79E
:1051F000A7F91CBD0018024082B0CDE9000121F0E2
:10520000004001909DED000B02B051EC100B704777
:1052100010B50446C1B20248FEF792FA204610BD0E
:105220000010014010B5002821D0114B0022001FB2
:10523000196803E0814203D80A4649680029F9D178
:1052400052B11368841A9C4204D10068184410605B
:10525000104602E0506000E0186039B102680B1A95
:10526000934203D10B681A4402604968416010BD43
:10527000680F002070B585780678044632462946C6
:105280000FA0FEF721FB462D08D300F007F9227886
:10529000A178BDE8704015A0FEF716BB462E04D3DA
:1052A00000F0ACF821781FA005E01D2D07D300F019
:1052B000CDF8A17829A0BDE87040FEF705BB70BD10
:1052C000E6B8A9E6B9BFE5BAA6E79B91E6B58BE4D7
:1052D000B8AD2E2E2E2E2874656D703A25642020D0
:1052E00068756D693A2564290D0A0000E6A380E619
:1052F000B58BE588B0E6B8A9E5BAA63A25642CE6F0
:10530000B9BFE5BAA63A2564E59D87E8B685E8BF4A
:1053100087E99888E580BCEFBC81EFBC81EFBC8158
:105320000D0A0000E6A380E6B58BE588B0E3808B2C
:10533000E3808BE6B9BFE5BAA63A2564E3808AE349
:10534000808AE8B685E8BF87E99888E580BCEFBC2D
:1053500081EFBC81EFBC810D0A000000E6A380E66E
:10536000B58BE588B0E3808BE3808BE6B8A9E5BA1E
:10537000A63A2564E3808AE3808AE8B685E8BF8799
:10538000E99888E580BCEFBC81EFBC81EFBC810D62
:105390000A00000010B50C210948FBF7FBFB40F6A2
:1053A000B8320849904207D30020C1F8A802BDE8EE
:1053B000104005A0FEF788BA0120C1F8A80210BD70
:1053C0000022014000804242E6A380E6B58BE588DA
:1053D000B0E4BAAEE5BAA6E8BF87E4BD8EEFBC8CF8
:1053E000E5B7B2E887AAE58AA8E68993E5BC80E735
:1053F00081AFE585892E2E2E200D0A002DE9F04182
:10540000104D0024C5F8B8420F4F0126C7F8A0621E
:105410004FF49678404605F52E7507F52877FFF787
:1054200094FE2E603C604046FFF78FFE2C603E608D
:105430004046FFF78AFE2E603C604046BDE8F041E2
:10544000FFF783BE00004242008042422DE9F04156
:10545000104D0024C5F8B4420F4F0126C7F8A062D2
:10546000C82005F52D7507F52877FFF76EFE2E602D
:105470003C60C820FFF769FE2C603E604FF49678D0
:105480004046FFF762FE2E603C604046BDE8F041BA
:10549000FFF75BBE00004242008042422DE9F0412E
:1054A000124C0025C4F8B852C4F8B452104F01266B
:1054B000C7F8A062642004F52D7407F52877FFF77C
:1054C00044FE666026603D606420FFF73EFE656036
:1054D00025603E60C820FFF738FE666026603D60AC
:1054E000BDE8F041C820FFF730BE00000000424296
:1054F000008042427CB54FF4A060FCF779FD4FF488
:10550000E1342046FDF754FF2046FEF703F8012062
:1055100002F0A8FC334C0028E0625ED002F050FBA1
:10552000206304F108010920CDE900014FF4007562
:1055300000232A462CA1304802F06EFF04F10C0132
:105540000820CDE9000100232A462CA1304802F0B2
:1055500063FF04F110010720CDE9000100232A4672
:105560002CA12F4802F058FF04F114010320CDE9CB
:105570000001002380222BA12E4802F04DFF04F1F0
:1055800018000424CDE9004000232A462AA12E4811
:1055900002F042FF134800231C30CDE90040802276
:1055A0002AA1304802F038FF0E4800232030CDE910
:1055B00000402A462CA1314802F02EFF094905205F
:1055C0002431CDE9000100232A462DA1304802F004
:1055D00023FF02F071FA00207CBD2EA0FEF774F9C3
:1055E000FEE7000000000020496E7465726E616C79
:1055F000496E6974000000002D73000845787465D9
:10560000726E616C496E69745461736B00000000C6
:10561000157100084F6E654E65745461736B000020
:105620002174000853686F7754696D655461736B1A
:1056300000000000E57600085265636F726444481C
:105640005431315461736B00A576000848616E6473
:105650006C654C6967687453656E736F72546173DF
:105660006B000000057300084448543131576172E3
:105670006E696E675461736B00000000B5700008BE
:10568000436C6F756455706C6F61645461736B002B
:1056900011700008E4BA92E696A5E9878FE5889B29
:1056A000E5BBBAE5A4B1E8B4A55C6E00F0B50B307B
:1056B000154D20F007010024144A0FE003688B42C7
:1056C0000BD38B4205D95E1A43184768C3E90067BC
:1056D00000E04368136002C004E0021D1068002867
:1056E000ECD12046002802D1286808B10020F0BD86
:1056F000064A07481060074A121A22F00702C0E95A
:10570000002401202860D7E76C0F0020680F0020DC
:105710001C410120184301200346012000E05843AA
:10572000491EC9B2FBD270472DE9F04107460878FF
:105730001E4E5B2801D0B16032E00520F860481CA5
:1057400001F0F4FB044600785D282CD0FFF79AFCAA
:105750000500B86025D0204601F0E8FB0146284648
:1057600000F048FA01F0E2FB04001AD011E0FFF764
:1057700089FC002815D0286045600546601C01F0B2
:10578000D5FB0146284600F035FA01F0CFFB0400B6
:1057900006D020782C28EAD020785D2803D0B46089
:1057A0000020BDE8F081601CFBE70000E00E002057
:1057B0000178A1F13002092A01D811460AE0A1F1CD
:1057C0004102052A01D8373904E0A1F16102052A16
:1057D0003FD857390A0110F8011FA1F13003092BF6
:1057E00001D8303A0AE0A1F14103052B01D8373A3C
:1057F00004E0A1F16103052B2BD8573A11440A01AB
:1058000010F8011FA1F13003092B01D8303A0AE04A
:10581000A1F14103052B01D8373A04E0A1F161035E
:10582000052B16D8573A114440780901A0F13002EF
:10583000092A01D8303904E0A0F14102052A02D832
:10584000373908447047A0F16102052A01D8573959
:10585000F7E70020704700002DE9F04106462DEDE6
:105860000C8B0C469FED578B9FED58DB087800257D
:105870000127B0EE4DBAF0EE6DBAB0EE489AF0EEF8
:10588000689A2D2802D19FED53BB4C1C20783028FC
:1058900000D1641C20789FED51CB313808281AD8EC
:1058A00014F8010B3038FAF797FE41EC1A0BB0EE02
:1058B0004C0AF0EE6C0A53EC102B51EC180BFAF773
:1058C00019FE53EC1A2BFAF76EFD41EC180B2078F9
:1058D00030380928E4D920782E2828D1607830285B
:1058E00043D3392841D8641C14F8010B3038FAF737
:1058F00073FE41EC1A0BB0EE4C0AF0EE6C0A53EC5E
:10590000102B51EC180BFAF7F5FD53EC1A2BFAF7A4
:105910004AFD41EC180B53EC1D2B51EC190BFAF717
:10592000E3FD41EC190B207830380928DCD92078C8
:10593000652801D0452818D114F8010F2B2802D072
:105940002D280FD000E0641C6FF02F012078A0F10B
:105950003002092A09D805EB850201EB42028518BD
:10596000641CF3E74FF0FF37EDE705FB07F0FAF7AC
:1059700033FE53EC192BFAF716FD41EC110BB0EE88
:105980004C0AF0EE6C0AFDF7EFFFB0EE409AF0EE35
:10599000609A53EC182B51EC1B0BFAF7ABFD53EC50
:1059A000192BFAF7A7FD41EC100B86ED060BFAF761
:1059B00024FE70610320F0602046BDEC0C8BBDE836
:1059C000F081000000000000000000000000000066
:1059D0000000F03F000000000000F0BF00000000E9
:1059E000000024402DE9F04107460878294E7B2825
:1059F00001D0B16030E00620F860481C01F096FA52
:105A0000054600787D2843D0FFF73CFB0400B860D2
:105A100023D0284601F08AFA0146204600F03CF8DF
:105A200001F084FA002818D02169002721622AE0B9
:105A3000B06011E0401C01F079FA0146204600F008
:105A4000D9F801F073FA050007D028782C2806D081
:105A500028787D281CD0B5600020BDE8F081FFF7D4
:105A600011FB0028F9D0206044600446681C01F056
:105A70005DFA0146204600F00FF801F057FA0028C1
:105A8000EBD021692162276101783A29D2D0CFE792
:105A9000681CE2E7E00E00202DE9F0470D464C1CA3
:105AA000814609780020514A222906D09560BDE838
:105AB000F087641C5C2900D1641C2178222902D063
:105AC00009B1401CF5D11168401C88470700EED091
:105AD000681C3C464FF4806879E05C2903D004F8E8
